{
  "contractName": "DogsUpdated",
  "abi": [
    {
      "inputs": [],
      "stateMutability": "nonpayable",
      "type": "constructor"
    },
    {
      "inputs": [],
      "name": "_initialized",
      "outputs": [
        {
          "internalType": "bool",
          "name": "",
          "type": "bool"
        }
      ],
      "stateMutability": "view",
      "type": "function"
    },
    {
      "inputs": [],
      "name": "owner",
      "outputs": [
        {
          "internalType": "address",
          "name": "",
          "type": "address"
        }
      ],
      "stateMutability": "view",
      "type": "function"
    },
    {
      "inputs": [
        {
          "internalType": "address",
          "name": "_owner",
          "type": "address"
        }
      ],
      "name": "initialize",
      "outputs": [],
      "stateMutability": "nonpayable",
      "type": "function"
    },
    {
      "inputs": [],
      "name": "getNumberOfDogs",
      "outputs": [
        {
          "internalType": "uint256",
          "name": "",
          "type": "uint256"
        }
      ],
      "stateMutability": "view",
      "type": "function"
    },
    {
      "inputs": [
        {
          "internalType": "uint256",
          "name": "toSet",
          "type": "uint256"
        }
      ],
      "name": "setNumberOfDogs",
      "outputs": [],
      "stateMutability": "nonpayable",
      "type": "function"
    }
  ],
  "bytecode": "0x608060405234801561000f575f80fd5b5061001f3361002460201b60201c565b61009b565b600560149054906101000a900460ff161561003d575f80fd5b8060055f6101000a81548173ffffffffffffffffffffffffffffffffffffffff021916908373ffffffffffffffffffffffffffffffffffffffff1602179055506001600560146101000a81548160ff02191690831515021790555050565b61043f806100a85f395ff3fe608060405234801561000f575f80fd5b5060043610610055575f3560e01c806314861b22146100595780631680a5ed146100755780633072cf60146100935780638da5cb5b146100b1578063c4d66de8146100cf575b5f80fd5b610073600480360381019061006e919061026e565b6100eb565b005b61007d610166565b60405161008a91906102a8565b60405180910390f35b61009b610188565b6040516100a891906102db565b60405180910390f35b6100b961019b565b6040516100c69190610333565b60405180910390f35b6100e960048036038101906100e49190610376565b6101c0565b005b60055f9054906101000a900473ffffffffffffffffffffffffffffffffffffffff1673ffffffffffffffffffffffffffffffffffffffff163373ffffffffffffffffffffffffffffffffffffffff1614610143575f80fd5b805f604051610151906103f5565b90815260200160405180910390208190555050565b5f80604051610174906103f5565b908152602001604051809103902054905090565b600560149054906101000a900460ff1681565b60055f9054906101000a900473ffffffffffffffffffffffffffffffffffffffff1681565b600560149054906101000a900460ff16156101d9575f80fd5b8060055f6101000a81548173ffffffffffffffffffffffffffffffffffffffff021916908373ffffffffffffffffffffffffffffffffffffffff1602179055506001600560146101000a81548160ff02191690831515021790555050565b5f80fd5b5f819050919050565b61024d8161023b565b8114610257575f80fd5b50565b5f8135905061026881610244565b92915050565b5f6020828403121561028357610282610237565b5b5f6102908482850161025a565b91505092915050565b6102a28161023b565b82525050565b5f6020820190506102bb5f830184610299565b92915050565b5f8115159050919050565b6102d5816102c1565b82525050565b5f6020820190506102ee5f8301846102cc565b92915050565b5f73ffffffffffffffffffffffffffffffffffffffff82169050919050565b5f61031d826102f4565b9050919050565b61032d81610313565b82525050565b5f6020820190506103465f830184610324565b92915050565b61035581610313565b811461035f575f80fd5b50565b5f813590506103708161034c565b92915050565b5f6020828403121561038b5761038a610237565b5b5f61039884828501610362565b91505092915050565b5f81905092915050565b7f446f6773000000000000000000000000000000000000000000000000000000005f82015250565b5f6103df6004836103a1565b91506103ea826103ab565b600482019050919050565b5f6103ff826103d3565b915081905091905056fea2646970667358221220f689ce44e641870f634f2d4c9f99d6e3a74ac0ccd0561f9ef8c43f23c4daac2964736f6c63430008140033",
  "immutableReferences": {},
  "source": "// SPDX-License-Identifier: MIT  \r\npragma solidity >0.6.0 <0.9.0;\r\n\r\nimport \"./Storage.sol\";\r\n\r\ncontract DogsUpdated is Storage{\r\n\r\n    modifier onlyOwner(){\r\n        require(msg.sender == owner);\r\n        _;\r\n    }\r\n\r\n    \r\n    constructor() public{\r\n        // owner = msg.sender;\r\n\r\n        // ako nemamo ovu liniju ispod tada bi svatko izvana mogao pozvati initialize() function to dogsUpdated contract\r\n        initialize(msg.sender);\r\n    }\r\n\r\n    // initialize all variables from constructor kako bi proxy znao for those states\r\n    // should be able to only call ONES\r\n    function initialize(address _owner) public{\r\n        require(!_initialized);\r\n        owner = _owner; \r\n        _initialized = true; \r\n    }\r\n    \r\n    function getNumberOfDogs() public view returns(uint256){\r\n        return _uintStorage[\"Dogs\"];\r\n    }\r\n\r\n    function setNumberOfDogs(uint256 toSet) public onlyOwner {\r\n        _uintStorage[\"Dogs\"] = toSet;\r\n    }\r\n\r\n}",
  "sourcePath": "C:\\Users\\lane\\Desktop\\practice\\MORALIS\\Smart_Contract_Security\\contracts\\DogsUpdated.sol",
  "compiler": {
    "name": "solc",
    "version": "0.8.20+commit.a1b79de6.Emscripten.clang"
  },
  "schemaVersion": "3.4.14",
  "updatedAt": "2023-10-22T15:01:56.463Z",
  "devdoc": {
    "kind": "dev",
    "methods": {},
    "version": 1
  },
  "userdoc": {
    "kind": "user",
    "methods": {},
    "version": 1
  }
}