{
  "contractName": "Proxy",
  "abi": [
    {
      "inputs": [
        {
          "internalType": "address",
          "name": "_currentAddress",
          "type": "address"
        }
      ],
      "stateMutability": "nonpayable",
      "type": "constructor"
    },
    {
      "stateMutability": "payable",
      "type": "fallback"
    },
    {
      "inputs": [],
      "name": "_initialized",
      "outputs": [
        {
          "internalType": "bool",
          "name": "",
          "type": "bool"
        }
      ],
      "stateMutability": "view",
      "type": "function"
    },
    {
      "inputs": [],
      "name": "owner",
      "outputs": [
        {
          "internalType": "address",
          "name": "",
          "type": "address"
        }
      ],
      "stateMutability": "view",
      "type": "function"
    },
    {
      "inputs": [
        {
          "internalType": "address",
          "name": "_newAddress",
          "type": "address"
        }
      ],
      "name": "upgrade",
      "outputs": [],
      "stateMutability": "nonpayable",
      "type": "function"
    }
  ],
  "bytecode": "0x608060405234801561000f575f80fd5b5060405161043d38038061043d833981810160405281019061003191906100d5565b8060065f6101000a81548173ffffffffffffffffffffffffffffffffffffffff021916908373ffffffffffffffffffffffffffffffffffffffff16021790555050610100565b5f80fd5b5f73ffffffffffffffffffffffffffffffffffffffff82169050919050565b5f6100a48261007b565b9050919050565b6100b48161009a565b81146100be575f80fd5b50565b5f815190506100cf816100ab565b92915050565b5f602082840312156100ea576100e9610077565b5b5f6100f7848285016100c1565b91505092915050565b6103308061010d5f395ff3fe608060405260043610610037575f3560e01c80630900f0101461011f5780633072cf60146101475780638da5cb5b1461017157610038565b5b5f60065f9054906101000a900473ffffffffffffffffffffffffffffffffffffffff1690505f73ffffffffffffffffffffffffffffffffffffffff1660065f9054906101000a900473ffffffffffffffffffffffffffffffffffffffff1673ffffffffffffffffffffffffffffffffffffffff16036100b5575f80fd5b5f80368080601f0160208091040260200160405190810160405280939291908181526020018383808284375f81840152601f19601f8201169050808301925050505050505090505f80825160208401855af43d604051815f823e825f811461011b578282f35b8282fd5b34801561012a575f80fd5b5061014560048036038101906101409190610274565b61019b565b005b348015610152575f80fd5b5061015b6101de565b60405161016891906102b9565b60405180910390f35b34801561017c575f80fd5b506101856101f1565b60405161019291906102e1565b60405180910390f35b8060065f6101000a81548173ffffffffffffffffffffffffffffffffffffffff021916908373ffffffffffffffffffffffffffffffffffffffff16021790555050565b600560149054906101000a900460ff1681565b60055f9054906101000a900473ffffffffffffffffffffffffffffffffffffffff1681565b5f80fd5b5f73ffffffffffffffffffffffffffffffffffffffff82169050919050565b5f6102438261021a565b9050919050565b61025381610239565b811461025d575f80fd5b50565b5f8135905061026e8161024a565b92915050565b5f6020828403121561028957610288610216565b5b5f61029684828501610260565b91505092915050565b5f8115159050919050565b6102b38161029f565b82525050565b5f6020820190506102cc5f8301846102aa565b92915050565b6102db81610239565b82525050565b5f6020820190506102f45f8301846102d2565b9291505056fea2646970667358221220d2b07b94161df51cd3e6c4e2bfe2441516cf0da16c988221acf16c0c9bd7bf8e64736f6c63430008140033",
  "immutableReferences": {},
  "source": "// SPDX-License-Identifier: MIT  \r\npragma solidity >0.6.0 <0.9.0;\r\n\r\nimport \"./Storage.sol\";\r\n\r\ncontract Proxy is Storage{\r\n\r\n    address currentAddress;\r\n\r\n    constructor(address _currentAddress) public{\r\n        currentAddress = _currentAddress;\r\n    }\r\n\r\n    function upgrade(address _newAddress) public {\r\n       // require(msg.sender == owner);\r\n        currentAddress = _newAddress; \r\n    }\r\n\r\n    // Take all info and delive it to currentAddress\r\n    // Fallback function it will trigger if someone sends functional call to this contract and here is no functions that are corresponds\r\n    // with names that person try to call\r\n    fallback() payable external {\r\n        // REDIREDT TO currentAddress\r\n        address implementation = currentAddress;  // this line tells where are we going to make calls\r\n        require(currentAddress != address(0)); // security reason\r\n        bytes memory data = msg.data;\r\n        // msg.data is all information about function call itself (it will contain all parameters that we sending to the function)\r\n\r\n        // This assembly code takes entire function call and entire data that is comming in and sending it forward, formating right way, calling \r\n        // implementation address with all data\r\n        //DELEGATECALL EVERY FUNCTION CALL\r\n        assembly {\r\n            let result := delegatecall(gas(), implementation, add(data, 0x20), mload(data), 0, 0)\r\n            let size := returndatasize()\r\n            let ptr := mload(0x40)\r\n            returndatacopy(ptr, 0, size)\r\n            switch result\r\n            case 0 {revert(ptr, size)}\r\n            default {return(ptr, size)}\r\n        }\r\n    }\r\n}",
  "sourcePath": "C:\\Users\\lane\\Desktop\\practice\\MORALIS\\Smart_Contract_Security\\contracts\\Proxy.sol",
  "compiler": {
    "name": "solc",
    "version": "0.8.20+commit.a1b79de6.Emscripten.clang"
  },
  "schemaVersion": "3.4.14",
  "updatedAt": "2023-10-22T15:01:56.470Z",
  "devdoc": {
    "kind": "dev",
    "methods": {},
    "version": 1
  },
  "userdoc": {
    "kind": "user",
    "methods": {},
    "version": 1
  }
}