{
  "contractName": "Storage",
  "abi": [
    {
      "inputs": [],
      "name": "_initialized",
      "outputs": [
        {
          "internalType": "bool",
          "name": "",
          "type": "bool"
        }
      ],
      "stateMutability": "view",
      "type": "function"
    },
    {
      "inputs": [],
      "name": "owner",
      "outputs": [
        {
          "internalType": "address",
          "name": "",
          "type": "address"
        }
      ],
      "stateMutability": "view",
      "type": "function"
    }
  ],
  "bytecode": "0x608060405234801561000f575f80fd5b5061016d8061001d5f395ff3fe608060405234801561000f575f80fd5b5060043610610034575f3560e01c80633072cf60146100385780638da5cb5b14610056575b5f80fd5b610040610074565b60405161004d91906100c6565b60405180910390f35b61005e610087565b60405161006b919061011e565b60405180910390f35b600560149054906101000a900460ff1681565b60055f9054906101000a900473ffffffffffffffffffffffffffffffffffffffff1681565b5f8115159050919050565b6100c0816100ac565b82525050565b5f6020820190506100d95f8301846100b7565b92915050565b5f73ffffffffffffffffffffffffffffffffffffffff82169050919050565b5f610108826100df565b9050919050565b610118816100fe565b82525050565b5f6020820190506101315f83018461010f565b9291505056fea26469706673582212209e8ce1dc12330ef54f5599a68bfce8c45fb9d31f046140edcd0b6dd41759030c64736f6c63430008140033",
  "immutableReferences": {},
  "source": "// SPDX-License-Identifier: MIT  \r\npragma solidity >0.6.0 <0.9.0;\r\n\r\ncontract Storage{\r\n    // storage has to remain (we can't change it in future if we update)\r\n    //1. What type of storage will I need? \r\n\r\n    mapping(string => uint256) _uintStorage;\r\n    // Adding new integer: _uintStorage[\"Number\"]=10\r\n    mapping(string => address) _addressStorage;\r\n    mapping(string => bool) _boolStorage;\r\n    mapping(string => string) _stringStorage;\r\n    mapping(string => bytes4) _bytesStorage;\r\n\r\n    address public owner; \r\n    bool public _initialized; \r\n    \r\n}",
  "sourcePath": "C:\\Users\\lane\\Desktop\\practice\\MORALIS\\Smart_Contract_Security\\contracts\\Storage.sol",
  "compiler": {
    "name": "solc",
    "version": "0.8.20+commit.a1b79de6.Emscripten.clang"
  },
  "schemaVersion": "3.4.14",
  "updatedAt": "2023-10-22T15:01:56.472Z",
  "devdoc": {
    "kind": "dev",
    "methods": {},
    "version": 1
  },
  "userdoc": {
    "kind": "user",
    "methods": {},
    "version": 1
  }
}